:100000000C9462000C948A000C948A000C948A0070
:100010000C948A000C948A000C948A000C948A0038
:100020000C948A000C948A000C948A000C948A0028
:100030000C948A000C948A000C948A000C948A0018
:100040000C940C020C948A000C947C020C945602C2
:100050000C948A000C948A000C948A000C948A00F8
:100060000C948A000C948A000000000023002600F3
:10007000290000000008000201000003040700003E
:1000800000000000000000000000250028002B00F8
:1000900000000000240027002A00040404040404D3
:1000A0000404020202020202030303030303010227
:1000B00004081020408001020408102001020408F6
:1000C0001020D90311241FBECFEFD8E0DEBFCDBF73
:1000D00011E0A0E0B1E0E6E2F8E002C005900D9288
:1000E000AE32B107D9F721E0AEE2B1E001C01D9216
:1000F000A63EB207E1F710E0C2E6D0E004C02197C7
:10010000FE010E940604C136D107C9F70E94AE0263
:100110000C9411040C940000CF93DF9390E0FC0149
:10012000E255FF4F2491FC01E656FF4F849188234E
:10013000C1F090E0880F991FFC01E057FF4FC59177
:10014000D491FC01EA57FF4FA591B4919FB7F89461
:100150003881822F809583238883EC91E22BEC9366
:100160009FBFDF91CF9108953FB7F8948091E2014E
:100170009091E301A091E401B091E50126B5A89B1F
:1001800005C02F3F19F00196A11DB11D3FBFBA2F29
:10019000A92F982F8827820F911DA11DB11DBC0189
:1001A000CD0142E0660F771F881F991F4A95D1F74E
:1001B00008958F929F92AF92BF92CF92DF92EF926B
:1001C000FF926B017C010E94B4004B015C01C114E1
:1001D000D104E104F104F1F00E94B400DC01CB0190
:1001E00088199909AA09BB09883E9340A105B10560
:1001F00070F321E0C21AD108E108F10888EE880EF8
:1002000083E0981EA11CB11CC114D104E104F104C7
:1002100019F7DDCFFF90EF90DF90CF90BF90AF90B8
:100220009F908F900895CF92DF92EF92FF920F935D
:100230001F93CF93DF936C017A018B01C0E0D0E074
:10024000CE15DF0589F0D8016D918D01D601ED91B4
:10025000FC910190F081E02DC6010995892B11F4E4
:100260007E0102C02196ECCFC701DF91CF911F9193
:100270000F91FF90EF90DF90CF900895FC01918D4A
:10028000828D981761F0828DDF01A80FB11D5D96F8
:100290008C91928D9F5F9F73928F90E008958FEF66
:1002A0009FEF0895FC01918D828D981731F0828D1A
:1002B000E80FF11D858D90E008958FEF9FEF089571
:1002C000FC01918D228D892F90E0805C9F4F821BD5
:1002D00091098F739927089580E491E00E9460014D
:1002E00021E0892B09F420E0822F0895FC01848D00
:1002F000DF01A80FB11DA35ABF4F2C91848D90E050
:1003000001968F739927848FA689B7892C93A0892A
:10031000B1898C9180648C93938D848D981306C0E1
:100320000288F389E02D80818F7D80830895EF928C
:10033000FF920F931F93CF93DF93EC0181E0888F9F
:100340009B8D8C8D981305C0E889F989808185FD86
:1003500024C0F62E0B8D10E00F5F1F4F0F73112777
:10036000E02E8C8DE8120CC00FB607FCFACFE8899E
:10037000F989808185FFF5CFCE010E947601F1CF0A
:100380008B8DFE01E80FF11DE35AFF4FF0820B8FBA
:10039000EA89FB898081806207C0EE89FF896083DA
:1003A000E889F98980818064808381E090E0DF9131
:1003B000CF911F910F91FF90EF900895CF93DF930E
:1003C000EC01888D8823C9F0EA89FB89808185FD4D
:1003D00005C0A889B9898C9186FD0FC00FB607FCAE
:1003E000F5CF808185FFF2CFA889B9898C9185FFEF
:1003F000EDCFCE010E947601E7CFDF91CF91089536
:1004000080E090E0892B29F00E946C0181110C940E
:10041000000008950E940C041F920F920FB60F92D5
:1004200011242F933F938F939F93AF93BF9380910A
:10043000DE019091DF01A091E001B091E1013091E6
:10044000DD0123E0230F2D3720F40196A11DB11DFE
:1004500005C026E8230F0296A11DB11D2093DD01E2
:100460008093DE019093DF01A093E001B093E1015E
:100470008091E2019091E301A091E401B091E50146
:100480000196A11DB11D8093E2019093E301A09319
:10049000E401B093E501BF91AF919F918F913F919E
:1004A0002F910F900FBE0F901F9018951F920F92D3
:1004B0000FB60F9211242F933F934F935F936F9337
:1004C0007F938F939F93AF93BF93EF93FF9380E4BA
:1004D00091E00E947601FF91EF91BF91AF919F91C2
:1004E0008F917F916F915F914F913F912F910F90DD
:1004F0000FBE0F901F9018951F920F920FB60F927C
:1005000011242F938F939F93EF93FF93E0915001CA
:10051000F09151018081E0915601F091570182FDE7
:1005200012C09081809159018F5F8F7320915A0181
:10053000821751F0E0915901F0E0E05CFE4F958F99
:100540008093590101C08081FF91EF919F918F911C
:100550002F910F900FBE0F901F901895789484B52F
:10056000826084BD84B5816084BD85B5826085BDAF
:1005700085B5816085BD80916E00816080936E003D
:10058000109281008091810082608093810080912F
:1005900081008160809381008091800081608093E0
:1005A00080008091B10084608093B1008091B000A0
:1005B00081608093B00080917A00846080937A009B
:1005C00080917A00826080937A0080917A008160C5
:1005D00080937A0080917A00806880937A001092EC
:1005E000C100E0915001F091510182E08083E091DF
:1005F0004C01F0914D011082E0914E01F0914F01BC
:100600008FEC808310925801E0915401F0915501D4
:1006100086E08083E0915201F091530180818061F6
:100620008083E0915201F091530180818860808342
:10063000E0915201F0915301808180688083E091C4
:100640005201F091530180818F7D80838EE00E9462
:100650008C008FE00E948C0080E10E948C0081E180
:100660000E948C0082E10E948C00C0E1D1E0888170
:1006700022960E948C0081E0C432D807C1F78CE03A
:100680000E948C008DE00E948C0068EC70E080E09D
:1006900090E00E94D90094E2E92E91E0F92E06E361
:1006A00011E0C0E1D1E080E491E00E94DE01F701B9
:1006B00041917F01F8015081899199919927FC011D
:1006C000EE58FF4F2491FC01E255FF4F3491FC019D
:1006D000E656FF4FE491EE2309F469C0222339F175
:1006E000233091F038F42130A9F0223001F584B59F
:1006F0008F7D12C0273091F02830A1F02430B9F45A
:10070000809180008F7D03C0809180008F778093DF
:1007100080000DC084B58F7784BD09C08091B00082
:100720008F7703C08091B0008F7D8093B000F0E0A0
:10073000EE0FFF1FE859FF4FA591B491EC913E23B6
:10074000B1F1511124C04093300180E491E00E9446
:10075000DE0148E050E06EE271E080E491E00E944A
:10076000130110922E011092300148E050E06EE229
:1007700071E080E491E00E94130180E491E00E9426
:10078000DE016CEB72E080E090E00E94D90081E035
:10079000F80181938F0180E491E00E94DE01F1E095
:1007A000C432DF0709F07FCF0E94000274CF80E0DF
:1007B000EFCFE0E4F1E01382128288EE93E0A0E054
:1007C000B0E084839583A683B78384E091E091832E
:1007D000808385EC90E09587848784EC90E0978710
:1007E000868780EC90E0918B808B81EC90E0938BFE
:1007F000828B82EC90E0958B848B86EC90E0978BDB
:10080000868B118E128E138E148E0895EE0FFF1F9D
:100810000590F491E02D099481E090E0F8940C9417
:060820001104F894FFCF63
:10082600000000009701130160013E015201DE0144
:100836000200030004000500060007000800090086
:0E0846000A000B000405060708090A0B0C0D3A
:00000001FF
